{
  "contractName": "Voting",
  "abi": [
    {
      "constant": true,
      "inputs": [],
      "name": "candidatesCount",
      "outputs": [
        {
          "name": "",
          "type": "uint8"
        }
      ],
      "payable": false,
      "stateMutability": "view",
      "type": "function"
    },
    {
      "constant": true,
      "inputs": [
        {
          "name": "",
          "type": "uint8"
        }
      ],
      "name": "candidates",
      "outputs": [
        {
          "name": "id",
          "type": "uint256"
        },
        {
          "name": "name",
          "type": "string"
        },
        {
          "name": "NumVotes",
          "type": "uint256"
        }
      ],
      "payable": false,
      "stateMutability": "view",
      "type": "function"
    },
    {
      "inputs": [],
      "payable": false,
      "stateMutability": "nonpayable",
      "type": "constructor"
    }
  ],
  "bytecode": "0x608060405234801561001057600080fd5b5061005e6040805190810160405280600381526020017f424c5000000000000000000000000000000000000000000000000000000000008152506100fd640100000000026401000000009004565b6100ab6040805190810160405280600381526020017f444c5000000000000000000000000000000000000000000000000000000000008152506100fd640100000000026401000000009004565b6100f86040805190810160405280600381526020017f55505000000000000000000000000000000000000000000000000000000000008152506100fd640100000000026401000000009004565b610261565b6001600081819054906101000a900460ff168092919060010191906101000a81548160ff021916908360ff16021790555050606060405190810160405280600160009054906101000a900460ff1660ff1681526020018281526020016000815250600080600160009054906101000a900460ff1660ff1660ff1681526020019081526020016000206000820151816000015560208201518160010190805190602001906101ab9291906101bc565b506040820151816002015590505050565b828054600181600116156101000203166002900490600052602060002090601f016020900481019282601f106101fd57805160ff191683800117855561022b565b8280016001018555821561022b579182015b8281111561022a57825182559160200191906001019061020f565b5b509050610238919061023c565b5090565b61025e91905b8082111561025a576000816000905550600101610242565b5090565b90565b61023a806102706000396000f30060806040526004361061004c576000357c0100000000000000000000000000000000000000000000000000000000900463ffffffff1680632d35a8a2146100515780636d6277f414610082575b600080fd5b34801561005d57600080fd5b50610066610139565b604051808260ff1660ff16815260200191505060405180910390f35b34801561008e57600080fd5b506100b0600480360381019080803560ff16906020019092919050505061014c565b6040518084815260200180602001838152602001828103825284818151815260200191508051906020019080838360005b838110156100fc5780820151818401526020810190506100e1565b50505050905090810190601f1680156101295780820380516001836020036101000a031916815260200191505b5094505050505060405180910390f35b600160009054906101000a900460ff1681565b6000602052806000526040600020600091509050806000015490806001018054600181600116156101000203166002900480601f0160208091040260200160405190810160405280929190818152602001828054600181600116156101000203166002900480156101fe5780601f106101d3576101008083540402835291602001916101fe565b820191906000526020600020905b8154815290600101906020018083116101e157829003601f168201915b50505050509080600201549050835600a165627a7a72305820ca26e319a5c2c47ba6d1e427e00b631153b5daf0c60be1d9d362e60b0ff586210029",
  "source": "pragma solidity^0.4.23;\n\n//define smart contract\ncontract Voting{\n\n  //Define candidates\n  struct Candidate{\n    uint id;\n    string name;\n    uint NumVotes;\n  }\n\n  //Record votes\n\n  //Find candidates\n  mapping(uint8 => Candidate) public candidates;\n\n  uint8 public candidatesCount;\n  //Define constructor\n  constructor() public{\n    addCandidate(\"BLP\");\n    addCandidate(\"DLP\");\n    addCandidate(\"UPP\");\n  }\n\n  function addCandidate(string _name) private{\n    candidatesCount++;\n    candidates[candidatesCount] = Candidate(candidatesCount, _name, 0);\n  }\n\n\n\n}",
  "sourcePath": "/Users/shannonclarke/Dev/truffle-tutorials/voting-app/contracts/Voting.sol",
  "compiler": {
    "name": "solc",
    "version": "0.4.24+commit.e67f0147.Emscripten.clang"
  },
  "schemaVersion": "2.0.0",
  "updatedAt": "2018-06-21T10:27:41.412Z"
}